{
  "contractName": "Record",
  "abi": [
    {
      "inputs": [
        {
          "name": "_patient",
          "type": "string"
        },
        {
          "name": "_doctor",
          "type": "string"
        },
        {
          "name": "_recordId",
          "type": "uint256"
        },
        {
          "name": "_desc",
          "type": "string"
        }
      ],
      "payable": false,
      "stateMutability": "nonpayable",
      "type": "constructor"
    },
    {
      "constant": true,
      "inputs": [],
      "name": "getRecord",
      "outputs": [
        {
          "name": "",
          "type": "string"
        },
        {
          "name": "",
          "type": "string"
        },
        {
          "name": "",
          "type": "uint256"
        },
        {
          "name": "",
          "type": "string"
        }
      ],
      "payable": false,
      "stateMutability": "view",
      "type": "function"
    }
  ],
  "bytecode": "0x608060405234801561001057600080fd5b5060405161060a38038061060a8339810180604052608081101561003357600080fd5b81019080805164010000000081111561004b57600080fd5b8281019050602081018481111561006157600080fd5b815185600182028301116401000000008211171561007e57600080fd5b5050929190602001805164010000000081111561009a57600080fd5b828101905060208101848111156100b057600080fd5b81518560018202830111640100000000821117156100cd57600080fd5b50509291906020018051906020019092919080516401000000008111156100f357600080fd5b8281019050602081018481111561010957600080fd5b815185600182028301116401000000008211171561012657600080fd5b50509291905050508360009080519060200190610144929190610183565b50816003819055508260019080519060200190610162929190610183565b508060029080519060200190610179929190610183565b5050505050610228565b828054600181600116156101000203166002900490600052602060002090601f016020900481019282601f106101c457805160ff19168380011785556101f2565b828001600101855582156101f2579182015b828111156101f15782518255916020019190600101906101d6565b5b5090506101ff9190610203565b5090565b61022591905b80821115610221576000816000905550600101610209565b5090565b90565b6103d3806102376000396000f3fe608060405260043610610041576000357c0100000000000000000000000000000000000000000000000000000000900463ffffffff168063f18ad6fb14610046575b600080fd5b34801561005257600080fd5b5061005b6101b5565b60405180806020018060200185815260200180602001848103845288818151815260200191508051906020019080838360005b838110156100a957808201518184015260208101905061008e565b50505050905090810190601f1680156100d65780820380516001836020036101000a031916815260200191505b50848103835287818151815260200191508051906020019080838360005b8381101561010f5780820151818401526020810190506100f4565b50505050905090810190601f16801561013c5780820380516001836020036101000a031916815260200191505b50848103825285818151815260200191508051906020019080838360005b8381101561017557808201518184015260208101905061015a565b50505050905090810190601f1680156101a25780820380516001836020036101000a031916815260200191505b5097505050505050505060405180910390f35b60608060006060600060016003546002838054600181600116156101000203166002900480601f01602080910402602001604051908101604052809291908181526020018280546001816001161561010002031660029004801561025a5780601f1061022f5761010080835404028352916020019161025a565b820191906000526020600020905b81548152906001019060200180831161023d57829003601f168201915b50505050509350828054600181600116156101000203166002900480601f0160208091040260200160405190810160405280929190818152602001828054600181600116156101000203166002900480156102f65780601f106102cb576101008083540402835291602001916102f6565b820191906000526020600020905b8154815290600101906020018083116102d957829003601f168201915b50505050509250808054600181600116156101000203166002900480601f0160208091040260200160405190810160405280929190818152602001828054600181600116156101000203166002900480156103925780601f1061036757610100808354040283529160200191610392565b820191906000526020600020905b81548152906001019060200180831161037557829003601f168201915b5050505050905093509350935093509091929356fea165627a7a723058209f416dc43e9c55913170c9dd5b6318bc43aeae2d8d0093d031108277780aa4a60029",
  "source": "pragma solidity ^0.5.0;\r\n\r\ncontract Record {\r\n    \r\n    string ownerPatient;\r\n    string creatorDoctor;\r\n    string description;\r\n    uint recordId;\r\n\r\n    constructor(string memory _patient, string memory _doctor, uint _recordId, string memory _desc) public{\r\n        ownerPatient = _patient;\r\n        recordId = _recordId;\r\n        creatorDoctor = _doctor;\r\n        description = _desc;\r\n    }\r\n    \r\n    function getRecord() public view returns(string memory, string memory, uint, string memory){\r\n        return (ownerPatient, creatorDoctor, recordId, description);\r\n    }\r\n}",
  "sourcePath": "C:/Users/Salman/Documents/MEC/S7/Project/MedChain/contracts/2_Record.sol",
  "compiler": {
    "name": "solc",
    "version": "0.5.0+commit.1d4f565a.Emscripten.clang"
  },
  "schemaVersion": "3.0.1",
  "updatedAt": "2021-04-23T12:01:47.882Z",
  "devdoc": {
    "methods": {}
  },
  "userdoc": {
    "methods": {}
  }
}